AHMNIE326500000000000000000910PSF11FRODAS                                   EDUARDO                                 DU94349197CFI22094349197719520105ARMS9 DE JULIO                    150          04568SALVADOR MAZZA      ST                              Santa Fe                      911          04000San Miguel Tucuman  TC                                                                                                                                                                                                                                                                                                                                                                                        S
AHMNIE326500000000000000000911PSF11FGARNICA                                 ALBERTO RICARDO                         DU18718258CFI22018718258219671001ARMSBº PUEBLO NUEVO 20 DE FEBRERO 358          04568SALVADOR MAZZA      ST                              Santa Fe                      911          04000San Miguel Tucuman  TC                                                                                                                                                                                                                                                                                                                                                                                        N
AHMNIE326500000000000000000912PSF11FTOCONAS                                 NOELIA FERNANDA                         DU28784618CFI22728784618019810524ARFSDIAG ESTE. DPTO BELGRANO      1450         04600CAPITAL             JJ                              Santa Fe                      911          04000San Miguel Tucuman  TC                                                                                                                                                                                                                                                                                                                                                                                        S
AHMNIE326500000000000000000913PSF11FPINTO                                   MALVINA PAMELA                          DU35825567CFI22735825567719900905ARFSAV SAN PABLO DPTO BELGRANO    1545         04600CAPITAL             JJ                              Santa Fe                      911          04000San Miguel Tucuman  TC                                                                                                                                                                                                                                                                                                                                                                                        N
AHMNIE331500000000000000000914PSF11FVALDIVIEZO                              GERONIMA                                DU09983966CFI22709983966519400720ARFCBº M MORENO - COLOMBIA        347          04600CAPITAL             JJ                              Santa Fe                      911          04000San Miguel Tucuman  TC                                                                                                                                                                                                                                                                                                                                                                                        S
 